{
  "address": "0x92e62D1197C8e45016149E7730f6144Bb113B15c",
  "abi": [
    {
      "inputs": [],
      "name": "AlreadyClaimed",
      "type": "error"
    },
    {
      "inputs": [],
      "name": "AlreadyFinalized",
      "type": "error"
    },
    {
      "inputs": [],
      "name": "AlreadyResolved",
      "type": "error"
    },
    {
      "inputs": [],
      "name": "BettingClosed",
      "type": "error"
    },
    {
      "inputs": [],
      "name": "DeadlineTooEarly",
      "type": "error"
    },
    {
      "inputs": [],
      "name": "EmptyMarket",
      "type": "error"
    },
    {
      "inputs": [],
      "name": "InvalidKMSSignatures",
      "type": "error"
    },
    {
      "inputs": [],
      "name": "MarketDoesNotExist",
      "type": "error"
    },
    {
      "inputs": [],
      "name": "NotFinalized",
      "type": "error"
    },
    {
      "inputs": [],
      "name": "NotResolved",
      "type": "error"
    },
    {
      "inputs": [],
      "name": "NotResolver",
      "type": "error"
    },
    {
      "inputs": [],
      "name": "PoolValueOverflow",
      "type": "error"
    },
    {
      "inputs": [
        {
          "internalType": "bytes32",
          "name": "handle",
          "type": "bytes32"
        },
        {
          "internalType": "address",
          "name": "sender",
          "type": "address"
        }
      ],
      "name": "SenderNotAllowedToUseHandle",
      "type": "error"
    },
    {
      "inputs": [],
      "name": "TooEarlyToResolve",
      "type": "error"
    },
    {
      "inputs": [],
      "name": "ZamaProtocolUnsupported",
      "type": "error"
    },
    {
      "anonymous": false,
      "inputs": [
        {
          "indexed": true,
          "internalType": "uint256",
          "name": "id",
          "type": "uint256"
        },
        {
          "indexed": true,
          "internalType": "address",
          "name": "bettor",
          "type": "address"
        }
      ],
      "name": "BetPlaced",
      "type": "event"
    },
    {
      "anonymous": false,
      "inputs": [
        {
          "indexed": true,
          "internalType": "uint256",
          "name": "id",
          "type": "uint256"
        },
        {
          "indexed": true,
          "internalType": "address",
          "name": "bettor",
          "type": "address"
        }
      ],
      "name": "Claimed",
      "type": "event"
    },
    {
      "anonymous": false,
      "inputs": [
        {
          "indexed": true,
          "internalType": "uint256",
          "name": "id",
          "type": "uint256"
        },
        {
          "indexed": true,
          "internalType": "address",
          "name": "resolver",
          "type": "address"
        },
        {
          "indexed": false,
          "internalType": "string",
          "name": "question",
          "type": "string"
        },
        {
          "indexed": true,
          "internalType": "uint64",
          "name": "resolveDeadline",
          "type": "uint64"
        }
      ],
      "name": "MarketCreated",
      "type": "event"
    },
    {
      "anonymous": false,
      "inputs": [
        {
          "indexed": true,
          "internalType": "uint256",
          "name": "id",
          "type": "uint256"
        },
        {
          "indexed": true,
          "internalType": "bool",
          "name": "winningSide",
          "type": "bool"
        }
      ],
      "name": "MarketResolved",
      "type": "event"
    },
    {
      "anonymous": false,
      "inputs": [
        {
          "indexed": true,
          "internalType": "uint256",
          "name": "id",
          "type": "uint256"
        },
        {
          "indexed": true,
          "internalType": "uint64",
          "name": "totalPool",
          "type": "uint64"
        },
        {
          "indexed": true,
          "internalType": "uint64",
          "name": "winningPool",
          "type": "uint64"
        }
      ],
      "name": "PoolsFinalized",
      "type": "event"
    },
    {
      "anonymous": false,
      "inputs": [
        {
          "indexed": false,
          "internalType": "bytes32[]",
          "name": "handlesList",
          "type": "bytes32[]"
        },
        {
          "indexed": false,
          "internalType": "bytes",
          "name": "abiEncodedCleartexts",
          "type": "bytes"
        }
      ],
      "name": "PublicDecryptionVerified",
      "type": "event"
    },
    {
      "inputs": [
        {
          "internalType": "uint256",
          "name": "id",
          "type": "uint256"
        },
        {
          "internalType": "externalEuint64",
          "name": "amount",
          "type": "bytes32"
        },
        {
          "internalType": "externalEbool",
          "name": "side",
          "type": "bytes32"
        },
        {
          "internalType": "bytes",
          "name": "inputProof",
          "type": "bytes"
        }
      ],
      "name": "bet",
      "outputs": [],
      "stateMutability": "nonpayable",
      "type": "function"
    },
    {
      "inputs": [
        {
          "internalType": "uint256",
          "name": "id",
          "type": "uint256"
        }
      ],
      "name": "claim",
      "outputs": [
        {
          "internalType": "euint64",
          "name": "payout",
          "type": "bytes32"
        }
      ],
      "stateMutability": "nonpayable",
      "type": "function"
    },
    {
      "inputs": [],
      "name": "confidentialProtocolId",
      "outputs": [
        {
          "internalType": "uint256",
          "name": "",
          "type": "uint256"
        }
      ],
      "stateMutability": "view",
      "type": "function"
    },
    {
      "inputs": [
        {
          "internalType": "string",
          "name": "question",
          "type": "string"
        },
        {
          "internalType": "uint64",
          "name": "resolveDeadline",
          "type": "uint64"
        }
      ],
      "name": "createMarket",
      "outputs": [
        {
          "internalType": "uint256",
          "name": "id",
          "type": "uint256"
        }
      ],
      "stateMutability": "nonpayable",
      "type": "function"
    },
    {
      "inputs": [
        {
          "internalType": "uint256",
          "name": "id",
          "type": "uint256"
        },
        {
          "internalType": "bytes",
          "name": "abiEncodedCleartexts",
          "type": "bytes"
        },
        {
          "internalType": "bytes",
          "name": "decryptionProof",
          "type": "bytes"
        }
      ],
      "name": "finalizePools",
      "outputs": [],
      "stateMutability": "nonpayable",
      "type": "function"
    },
    {
      "inputs": [
        {
          "internalType": "uint256",
          "name": "id",
          "type": "uint256"
        }
      ],
      "name": "getMarket",
      "outputs": [
        {
          "components": [
            {
              "internalType": "string",
              "name": "question",
              "type": "string"
            },
            {
              "internalType": "uint64",
              "name": "resolveDeadline",
              "type": "uint64"
            },
            {
              "internalType": "address",
              "name": "resolver",
              "type": "address"
            },
            {
              "internalType": "bool",
              "name": "resolved",
              "type": "bool"
            },
            {
              "internalType": "bool",
              "name": "winningSide",
              "type": "bool"
            },
            {
              "internalType": "bool",
              "name": "finalized",
              "type": "bool"
            },
            {
              "internalType": "bool",
              "name": "hasBets",
              "type": "bool"
            },
            {
              "internalType": "uint64",
              "name": "totalPool",
              "type": "uint64"
            },
            {
              "internalType": "uint64",
              "name": "winningPool",
              "type": "uint64"
            }
          ],
          "internalType": "struct PredictionMarket.Market",
          "name": "market",
          "type": "tuple"
        }
      ],
      "stateMutability": "view",
      "type": "function"
    },
    {
      "inputs": [
        {
          "internalType": "uint256",
          "name": "id",
          "type": "uint256"
        }
      ],
      "name": "getPayout",
      "outputs": [
        {
          "internalType": "euint64",
          "name": "payout",
          "type": "bytes32"
        }
      ],
      "stateMutability": "view",
      "type": "function"
    },
    {
      "inputs": [
        {
          "internalType": "uint256",
          "name": "id",
          "type": "uint256"
        }
      ],
      "name": "getPools",
      "outputs": [
        {
          "internalType": "euint64",
          "name": "yesPool",
          "type": "bytes32"
        },
        {
          "internalType": "euint64",
          "name": "noPool",
          "type": "bytes32"
        }
      ],
      "stateMutability": "view",
      "type": "function"
    },
    {
      "inputs": [
        {
          "internalType": "uint256",
          "name": "id",
          "type": "uint256"
        }
      ],
      "name": "getStakes",
      "outputs": [
        {
          "internalType": "euint64",
          "name": "yesStake",
          "type": "bytes32"
        },
        {
          "internalType": "euint64",
          "name": "noStake",
          "type": "bytes32"
        }
      ],
      "stateMutability": "view",
      "type": "function"
    },
    {
      "inputs": [
        {
          "internalType": "uint256",
          "name": "id",
          "type": "uint256"
        },
        {
          "internalType": "address",
          "name": "bettor",
          "type": "address"
        }
      ],
      "name": "hasClaimed",
      "outputs": [
        {
          "internalType": "bool",
          "name": "claimed",
          "type": "bool"
        }
      ],
      "stateMutability": "view",
      "type": "function"
    },
    {
      "inputs": [],
      "name": "marketCount",
      "outputs": [
        {
          "internalType": "uint256",
          "name": "",
          "type": "uint256"
        }
      ],
      "stateMutability": "view",
      "type": "function"
    },
    {
      "inputs": [
        {
          "internalType": "uint256",
          "name": "id",
          "type": "uint256"
        },
        {
          "internalType": "bool",
          "name": "winningSide",
          "type": "bool"
        }
      ],
      "name": "resolve",
      "outputs": [],
      "stateMutability": "nonpayable",
      "type": "function"
    }
  ],
  "transactionHash": "0xfeb1a3a3d898fd90349c434e2f6fb45a16d722f20917dfd6cbe8174a47c7a52d",
  "args": [],
  "numDeployments": 1,
  "solcInputHash": "66b597a41e35c110f53be88c7230ca1f",
  "bytecode": "0x608060405234801561000f575f5ffd5b506100c461001b6100c9565b80517f9e7b61f58c47dc699ac88507c4f5bb9f121c03808c5676a8078fe583e464970080546001600160a01b03199081166001600160a01b039384161790915560208301517f9e7b61f58c47dc699ac88507c4f5bb9f121c03808c5676a8078fe583e46497018054831691841691909117905560408301517f9e7b61f58c47dc699ac88507c4f5bb9f121c03808c5676a8078fe583e46497028054909216921691909117905550565b610278565b604080516060810182525f808252602082018190529181019190915246600103610162575060408051606080820183525f8083526020808401829052928401528251908101835273ca2e8f1f656cd25c01f05d0b243ab1ecd4a8ffb6815273d82385dada1ae3e969447f20a3164f6213100e75918101919091527377627828a55156b04ac0dc0eb30467f1a552bb039181019190915290565b4662aa36a7036101e1575060408051606080820183525f8083526020808401829052928401528251908101835273f0ffdc93b7e186bc2f8cb3daa75d86d1930a433d81527392c920834ec8941d2c77d188936e1f7a6f49c1279181019190915273be0e383937d564d7ff0bc3b46c51f0bf8d5c311a9181019190915290565b46617a690361025f575060408051606080820183525f808352602080840182905292840152825190810183527350157cffd6bbfa2dece204a89ec419c23ef5755d815273e3a9105a3a932253a70f126eb1e3b589c643dd249181019190915273901f8942346f7ab3a01f6d7613119bca447bb0309181019190915290565b6040516373cac13b60e01b815260040160405180910390fd5b611dd6806102855f395ff3fe608060405234801561000f575f5ffd5b50600436106100cf575f3560e01c806366e1716d1161007d578063e4aef3cd11610058578063e4aef3cd146101ad578063eb44fdd3146101c0578063ec979082146101e0575f5ffd5b806366e1716d1461016f578063873f6f9e146101825780638927b030146101a5575f5ffd5b8063472343b9116100ad578063472343b91461012157806352a34b051461014957806362d26ed71461015c575f5ffd5b80633048d870146100d3578063379607f5146100e85780633e56f9f91461010e575b5f5ffd5b6100e66100e13660046117d2565b6101e8565b005b6100fb6100f636600461184b565b6104df565b6040519081526020015b60405180910390f35b6100fb61011c36600461184b565b6106c0565b61013461012f36600461184b565b610705565b60408051928352602083019190915201610105565b6100e6610157366004611872565b61075e565b61013461016a36600461184b565b6108eb565b6100fb61017d3660046118a0565b610930565b6101956101903660046118ff565b610a15565b6040519015158152602001610105565b6100fb610a64565b6100e66101bb36600461192d565b610a72565b6101d36101ce36600461184b565b610d2d565b604051610105919061199a565b6100fb5f5481565b845f54811061020a5760405163b0cfa44760e01b815260040160405180910390fd5b5f86815260016020819052604090912090810154600160e01b900460ff1661024557604051639f4a648960e01b815260040160405180910390fd5b6001810154600160f01b900460ff16156102725760405163475a253560e01b815260040160405180910390fd5b6040805160028082526060820183525f92602083019080368337019050505f89815260026020526040902054909150815f815181106102b3576102b3611a6c565b6020026020010181815250506102d760035f8a81526020019081526020015f205490565b816001815181106102ea576102ea611a6c565b6020026020010181815250506103688188888080601f0160208091040260200160405190810160405280939291908181526020018383808284375f9201919091525050604080516020601f8c018190048102820181019092528a815292508a91508990819084018382808284375f92019190915250610ecf92505050565b5f80610376888a018a611a80565b909250905067ffffffffffffffff821180610398575067ffffffffffffffff81115b156103b6576040516343030dd760e11b815260040160405180910390fd5b67ffffffffffffffff6103cd828216848316611ab4565b11156103ec576040516343030dd760e11b815260040160405180910390fd5b6001840180547fff00ffffffffffffffffffffffffffffffffffffffffffffffffffffffffffff16600160f01b17905581816104288183611ac7565b60028701805467ffffffffffffffff191667ffffffffffffffff929092169190911790556001860154600160e81b900460ff166104655780610467565b815b6002870180546fffffffffffffffff0000000000000000198116600160401b67ffffffffffffffff9485168102918217938490556040519304841693918216911617908e907f253523f6d84f4014004fe4a206091f381b3ded4c237430372fe45da352ecd472905f90a4505050505050505050505050565b5f815f5481106105025760405163b0cfa44760e01b815260040160405180910390fd5b5f83815260016020819052604090912090810154600160f01b900460ff1661053d57604051630df706ad60e11b815260040160405180910390fd5b5f84815260066020908152604080832033845290915290205460ff161561057757604051630c8d9eab60e31b815260040160405180910390fd5b5f8481526006602090815260408083203384529091528120805460ff19166001908117909155820154600160e81b900460ff166105cc575f8581526005602090815260408083203384529091529020546105e6565b5f8581526004602090815260408083203384529091529020545b6002830154909150600160401b900467ffffffffffffffff165f036106155761060e5f610f3a565b9350610651565b600282015461064e9061063390839067ffffffffffffffff16610f56565b6002840154600160401b900467ffffffffffffffff16610f85565b93505b5f858152600760209081526040808320338452909152902084905561067584610fab565b506106808433610fcb565b5061068b8133610fcb565b50604051339086907f6aa3eac93d079e5e100b1029be716caa33586c96aa4baac390669fb5c2a21212905f90a3505050919050565b5f815f5481106106e35760405163b0cfa44760e01b815260040160405180910390fd5b5f83815260076020908152604080832033845290915290205491505b50919050565b5f5f825f5481106107295760405163b0cfa44760e01b815260040160405180910390fd5b5050505f8181526004602090815260408083203380855290835281842054948452600583528184209084529091529020549091565b815f5481106107805760405163b0cfa44760e01b815260040160405180910390fd5b5f83815260016020819052604090912090810154600160401b90046001600160a01b031633146107c357604051635d154fe160e11b815260040160405180910390fd5b600181015467ffffffffffffffff164210156107f257604051630fce133d60e01b815260040160405180910390fd5b6001810154600160e01b900460ff161561081f576040516336ab81e160e11b815260040160405180910390fd5b6001810154600160f81b900460ff1661084b576040516302fde0d760e11b815260040160405180910390fd5b600181018054841515600160e81b027fffff0000ffffffffffffffffffffffffffffffffffffffffffffffffffffffff90911617600160e01b1790555f8481526002602052604090205461089e90610fee565b505f848152600360205260409020546108b690610fee565b506040518315159085907f4927fe38919783250023d27e65a3e56b6b5c3e49364e51674a41ef08d62460d9905f90a350505050565b5f5f825f54811061090f5760405163b0cfa44760e01b815260040160405180910390fd5b5050505f908152600260209081526040808320546003909252909120549091565b5f8167ffffffffffffffff16421061095b5760405163030b6b3b60e61b815260040160405180910390fd5b505f8054908061096a83611ae7565b909155505f81815260016020526040902080610987858783611b7d565b5060018101805467ffffffffffffffff85167fffffffff00000000000000000000000000000000000000000000000000000000909116811733600160401b81029190911790925560405190919084907ffc4432f15abe6b3f14000f639d66204823cd92dda745f08f28e63a1bb1a86fbe90610a05908a908a90611c37565b60405180910390a4509392505050565b5f825f548110610a385760405163b0cfa44760e01b815260040160405180910390fd5b50505f9182526006602090815260408084206001600160a01b0393909316845291905290205460ff1690565b5f610a6d611009565b905090565b845f548110610a945760405163b0cfa44760e01b815260040160405180910390fd5b5f86815260016020819052604090912090810180547effffffffffffffffffffffffffffffffffffffffffffffffffffffffffffff16600160f81b1790819055600160e01b900460ff1680610af75750600181015467ffffffffffffffff164210155b15610b15576040516330e2a62560e11b815260040160405180910390fd5b5f5f5f610b578988888080601f0160208091040260200160405190810160405280939291908181526020018383808284375f9201919091525061103d92505050565b90505f610b998989898080601f0160208091040260200160405190810160405280939291908181526020018383808284375f920191909152506110a792505050565b90505f610ba55f610f3a565b9050610bb28284836110cd565b9450610bbf8282856110cd565b9350505050610bdf60025f8b81526020019081526020015f205483611114565b5f8a815260026020908152604080832093909355600390522054610c039082611114565b5f8a8152600360209081526040808320939093556004815282822033835290522054610c2f9083611114565b5f8a815260046020908152604080832033808552908352818420949094558c8352600582528083209383529290522054610c699082611114565b5f8a81526005602090815260408083203384528252808320939093558b8252600290522054610c9790610fab565b505f89815260036020526040902054610caf90610fab565b505f898152600460209081526040808320338452909152902054610cd290610fab565b505f898152600560209081526040808320338452909152902054610cf590610fab565b5060405133908a907f71db8f0b94a6ae898ff1583920da121c8f18ea26ad96353276843685325262e1905f90a3505050505050505050565b604080516101208101825260608082525f6020830181905292820183905281018290526080810182905260a0810182905260c0810182905260e08101829052610100810191909152815f548110610d975760405163b0cfa44760e01b815260040160405180910390fd5b5f838152600160205260409081902081516101208101909252805482908290610dbf90611aff565b80601f0160208091040260200160405190810160405280929190818152602001828054610deb90611aff565b8015610e365780601f10610e0d57610100808354040283529160200191610e36565b820191905f5260205f20905b815481529060010190602001808311610e1957829003601f168201915b5050509183525050600182015467ffffffffffffffff8082166020840152600160401b8083046001600160a01b03166040850152600160e01b830460ff90811615156060860152600160e81b8404811615156080860152600160f01b84048116151560a0860152600160f81b909304909216151560c084015260029093015480841660e084015204909116610100909101529392505050565b5f610edb848484611142565b905080610efb5760405163cf6c44e960e01b815260040160405180910390fd5b7fc6366bab028b8d033cb362cfd1f2f3457ef4e92fc738b6788b90d5a7846367a08484604051610f2c929190611c9f565b60405180910390a150505050565b5f610f508267ffffffffffffffff1660056111ef565b92915050565b5f82610f6857610f655f610f3a565b92505b610f7e8367ffffffffffffffff84166001611291565b9392505050565b5f82610f9757610f945f610f3a565b92505b610f7e8367ffffffffffffffff8416611361565b5f81610fbd57610fba5f610f3a565b91505b610fc782306113fc565b5090565b5f82610fdd57610fda5f610f3a565b92505b610fe783836113fc565b5090919050565b5f8161100057610ffd5f610f3a565b91505b610fc782611470565b5f466001036110185750600190565b4662aa36a703611029575061271190565b46617a690361103857505f1990565b505f90565b5f81515f1461105957611052838360056114ee565b9050610f50565b825f8190036110735761106b5f610f3a565b915050610f50565b61107d81336115fb565b61105257604051630276b5d960e01b81526004810182905233602482015260440160405180910390fd5b5f81515f146110bb5761105283835f6114ee565b825f8190036110735761106b5f61167f565b5f836110df576110dc5f61167f565b93505b826110f0576110ed5f610f3a565b92505b81611101576110fe5f610f3a565b91505b61110c84848461169a565b949350505050565b5f82611126576111235f610f3a565b92505b81611137576111345f610f3a565b91505b610f7e83835f611703565b7f9e7b61f58c47dc699ac88507c4f5bb9f121c03808c5676a8078fe583e4649702546040516378542ead60e01b81525f915f516020611daa5f395f51905f52916001600160a01b03909116906378542ead906111a690889088908890600401611cc3565b6020604051808303815f875af11580156111c2573d5f5f3e3d5ffd5b505050506040513d601f19601f820116820180604052508101906111e69190611cfb565b95945050505050565b7f9e7b61f58c47dc699ac88507c4f5bb9f121c03808c5676a8078fe583e464970154604051639cd07acb60e01b81525f915f516020611daa5f395f51905f52916001600160a01b0390911690639cd07acb906112519087908790600401611d36565b6020604051808303815f875af115801561126d573d5f5f3e3d5ffd5b505050506040513d601f19601f8201168201806040525081019061110c9190611d4a565b5f5f82156112a45750600160f81b6112a7565b505f5b7f9e7b61f58c47dc699ac88507c4f5bb9f121c03808c5676a8078fe583e464970154604051630afe14ad60e31b815260048101879052602481018690526001600160f81b0319831660448201525f516020611daa5f395f51905f52916001600160a01b0316906357f0a568906064015b6020604051808303815f875af1158015611333573d5f5f3e3d5ffd5b505050506040513d601f19601f820116820180604052508101906113579190611d4a565b9695505050505050565b5f600160f81b815f516020611daa5f395f51905f526001810154604051635a53accb60e01b815260048101889052602481018790526001600160f81b0319851660448201529192506001600160a01b031690635a53accb906064016020604051808303815f875af11580156113d8573d5f5f3e3d5ffd5b505050506040513d601f19601f820116820180604052508101906111e69190611d4a565b5f516020611daa5f395f51905f528054604051635ca4b5b160e11b8152600481018590526001600160a01b0384811660248301529091169063b9496b62906044015b5f604051808303815f87803b158015611455575f5ffd5b505af1158015611467573d5f5f3e3d5ffd5b50505050505050565b6040805160018082528183019092525f516020611daa5f395f51905f52915f91906020808301908036833701905050905082815f815181106114b4576114b4611a6c565b60209081029190910101528154604051637d6e912360e11b81526001600160a01b039091169063fadd22469061143e908490600401611d61565b7f9e7b61f58c47dc699ac88507c4f5bb9f121c03808c5676a8078fe583e46497015460405163045fc19560e11b81525f915f516020611daa5f395f51905f52916001600160a01b03909116906308bf832a90611554908890339089908990600401611d73565b6020604051808303815f875af1158015611570573d5f5f3e3d5ffd5b505050506040513d601f19601f820116820180604052508101906115949190611d4a565b8154604051630f8e573b60e21b8152600481018390523360248201529193506001600160a01b031690633e395cec906044015f604051808303815f87803b1580156115dd575f5ffd5b505af11580156115ef573d5f5f3e3d5ffd5b50505050509392505050565b5f805f516020611daa5f395f51905f5280546040516382027b6d60e01b8152600481018790526001600160a01b0386811660248301529293509116906382027b6d90604401602060405180830381865afa15801561165b573d5f5f3e3d5ffd5b505050506040513d601f19601f8201168201806040525081019061110c9190611cfb565b5f610f508261168e575f611691565b60015b60ff165f6111ef565b5f805f516020611daa5f395f51905f526001810154604051637702dcff60e01b81526004810188905260248101879052604481018690529192506001600160a01b031690637702dcff906064016020604051808303815f875af11580156113d8573d5f5f3e3d5ffd5b5f5f82156117165750600160f81b611719565b505f5b7f9e7b61f58c47dc699ac88507c4f5bb9f121c03808c5676a8078fe583e46497015460405163022f65e760e31b815260048101879052602481018690526001600160f81b0319831660448201525f516020611daa5f395f51905f52916001600160a01b03169063117b2f3890606401611317565b5f5f83601f84011261179d575f5ffd5b50813567ffffffffffffffff8111156117b4575f5ffd5b6020830191508360208285010111156117cb575f5ffd5b9250929050565b5f5f5f5f5f606086880312156117e6575f5ffd5b85359450602086013567ffffffffffffffff811115611803575f5ffd5b61180f8882890161178d565b909550935050604086013567ffffffffffffffff81111561182e575f5ffd5b61183a8882890161178d565b969995985093965092949392505050565b5f6020828403121561185b575f5ffd5b5035919050565b801515811461186f575f5ffd5b50565b5f5f60408385031215611883575f5ffd5b82359150602083013561189581611862565b809150509250929050565b5f5f5f604084860312156118b2575f5ffd5b833567ffffffffffffffff8111156118c8575f5ffd5b6118d48682870161178d565b909450925050602084013567ffffffffffffffff811681146118f4575f5ffd5b809150509250925092565b5f5f60408385031215611910575f5ffd5b8235915060208301356001600160a01b0381168114611895575f5ffd5b5f5f5f5f5f60808688031215611941575f5ffd5b853594506020860135935060408601359250606086013567ffffffffffffffff81111561182e575f5ffd5b5f81518084528060208401602086015e5f602082860101526020601f19601f83011685010191505092915050565b602081525f825161012060208401526119b761014084018261196c565b905060208401516119d4604085018267ffffffffffffffff169052565b5060408401516001600160a01b0381166060850152506060840151801515608085015250608084015180151560a08501525060a084015180151560c08501525060c084015180151560e08501525060e084015167ffffffffffffffff81166101008501525061010084015167ffffffffffffffff8116610120850152509392505050565b634e487b7160e01b5f52604160045260245ffd5b634e487b7160e01b5f52603260045260245ffd5b5f5f60408385031215611a91575f5ffd5b50508035926020909101359150565b634e487b7160e01b5f52601160045260245ffd5b80820180821115610f5057610f50611aa0565b67ffffffffffffffff8181168382160190811115610f5057610f50611aa0565b5f60018201611af857611af8611aa0565b5060010190565b600181811c90821680611b1357607f821691505b6020821081036106ff57634e487b7160e01b5f52602260045260245ffd5b601f821115611b7857805f5260205f20601f840160051c81016020851015611b565750805b601f840160051c820191505b81811015611b75575f8155600101611b62565b50505b505050565b67ffffffffffffffff831115611b9557611b95611a58565b611ba983611ba38354611aff565b83611b31565b5f601f841160018114611bda575f8515611bc35750838201355b5f19600387901b1c1916600186901b178355611b75565b5f83815260208120601f198716915b82811015611c095786850135825560209485019460019092019101611be9565b5086821015611c25575f1960f88860031b161c19848701351681555b505060018560011b0183555050505050565b60208152816020820152818360408301375f818301604090810191909152601f909201601f19160101919050565b5f8151808452602084019350602083015f5b82811015611c95578151865260209586019590910190600101611c77565b5093949350505050565b604081525f611cb16040830185611c65565b82810360208401526111e6818561196c565b606081525f611cd56060830186611c65565b8281036020840152611ce7818661196c565b90508281036040840152611357818561196c565b5f60208284031215611d0b575f5ffd5b8151610f7e81611862565b60548110611d3257634e487b7160e01b5f52602160045260245ffd5b9052565b82815260408101610f7e6020830184611d16565b5f60208284031215611d5a575f5ffd5b5051919050565b602081525f610f7e6020830184611c65565b8481526001600160a01b0384166020820152608060408201525f611d9a608083018561196c565b90506111e66060830184611d1656fe9e7b61f58c47dc699ac88507c4f5bb9f121c03808c5676a8078fe583e4649700a164736f6c634300081b000a",
  "devdoc": {
    "author": "fhevm-hardhat-template",
    "details": "Both pools and both per-user stakes update on every bet (the non-chosen side adds an encrypted zero) so the side cannot be inferred from which storage slot changed.",
    "events": {
      "BetPlaced(uint256,address)": {
        "params": {
          "bettor": "The address that placed the bet.",
          "id": "The market id."
        }
      },
      "Claimed(uint256,address)": {
        "params": {
          "bettor": "The claiming address.",
          "id": "The market id."
        }
      },
      "MarketCreated(uint256,address,string,uint64)": {
        "params": {
          "id": "The new market id.",
          "question": "The market question.",
          "resolveDeadline": "Unix timestamp separating betting from resolution.",
          "resolver": "The address allowed to resolve the market."
        }
      },
      "MarketResolved(uint256,bool)": {
        "params": {
          "id": "The market id.",
          "winningSide": "The winning side (true = YES)."
        }
      },
      "PoolsFinalized(uint256,uint64,uint64)": {
        "params": {
          "id": "The market id.",
          "totalPool": "The total of both pools.",
          "winningPool": "The pool on the winning side."
        }
      }
    },
    "kind": "dev",
    "methods": {
      "bet(uint256,bytes32,bytes32,bytes)": {
        "details": "Both pools and both user stakes are updated every call; the unchosen side adds an encrypted zero so the chosen side is not observable from storage writes. User decrypt rights on stakes are intentionally deferred to claim() to prevent mid-market side inference from which stake handle a user can decrypt.",
        "params": {
          "amount": "Encrypted stake amount (externalEuint64) from the client.",
          "id": "Market id.",
          "inputProof": "Shared input proof covering both `amount` and `side` (one encrypt() bundle).",
          "side": "Encrypted side (externalEbool); true = YES."
        }
      },
      "claim(uint256)": {
        "details": "Uses plaintext-divisor FHE.div (winningPool is revealed), which is why pools must be finalized first. If winningPool is 0 (no winners) payouts are 0. Idempotency is enforced per caller; the handle is also readable later via getPayout().",
        "params": {
          "id": "Market id."
        },
        "returns": {
          "payout": "The encrypted payout handle, decryptable by the caller."
        }
      },
      "createMarket(string,uint64)": {
        "params": {
          "question": "Human-readable market question.",
          "resolveDeadline": "Unix timestamp; must be strictly in the future. Bets accepted strictly before it, resolution after it."
        },
        "returns": {
          "id": "The new market id."
        }
      },
      "finalizePools(uint256,bytes,bytes)": {
        "details": "`abiEncodedCleartexts` and `decryptionProof` come verbatim from the relayer SDK `publicDecrypt([yesPool, noPool])` call. Decoding mirrors the [yes, no] handle order.",
        "params": {
          "abiEncodedCleartexts": "ABI-encoded cleartexts as returned by the SDK.",
          "decryptionProof": "KMS signatures returned by the SDK.",
          "id": "Market id."
        }
      },
      "getMarket(uint256)": {
        "params": {
          "id": "Market id."
        },
        "returns": {
          "market": "The market struct."
        }
      },
      "getPayout(uint256)": {
        "params": {
          "id": "Market id."
        },
        "returns": {
          "payout": "The caller's encrypted payout handle."
        }
      },
      "getPools(uint256)": {
        "params": {
          "id": "Market id."
        },
        "returns": {
          "noPool": "The encrypted NO pool handle.",
          "yesPool": "The encrypted YES pool handle."
        }
      },
      "getStakes(uint256)": {
        "params": {
          "id": "Market id."
        },
        "returns": {
          "noStake": "The caller's encrypted NO stake handle.",
          "yesStake": "The caller's encrypted YES stake handle."
        }
      },
      "hasClaimed(uint256,address)": {
        "params": {
          "bettor": "The address to check.",
          "id": "Market id."
        },
        "returns": {
          "claimed": "True if already claimed."
        }
      },
      "resolve(uint256,bool)": {
        "params": {
          "id": "Market id.",
          "winningSide": "true = YES won, false = NO won."
        }
      }
    },
    "title": "Confidential Prediction Market",
    "version": 1
  },
  "userdoc": {
    "errors": {
      "InvalidKMSSignatures()": [
        {
          "notice": "Returned if the returned KMS signatures are not valid."
        }
      ],
      "SenderNotAllowedToUseHandle(bytes32,address)": [
        {
          "notice": "Returned if the sender is not allowed to use the handle."
        }
      ],
      "ZamaProtocolUnsupported()": [
        {
          "notice": "Returned if the Zama protocol is not supported on the current chain"
        }
      ]
    },
    "events": {
      "BetPlaced(uint256,address)": {
        "notice": "Emitted when a bet is placed."
      },
      "Claimed(uint256,address)": {
        "notice": "Emitted when a bettor claims their payout."
      },
      "MarketCreated(uint256,address,string,uint64)": {
        "notice": "Emitted when a market is opened."
      },
      "MarketResolved(uint256,bool)": {
        "notice": "Emitted when the resolver declares the outcome."
      },
      "PoolsFinalized(uint256,uint64,uint64)": {
        "notice": "Emitted when the revealed pools are verified and stored."
      },
      "PublicDecryptionVerified(bytes32[],bytes)": {
        "notice": "This event is emitted when public decryption has been successfully verified."
      }
    },
    "kind": "user",
    "methods": {
      "bet(uint256,bytes32,bytes32,bytes)": {
        "notice": "Places an encrypted bet. Both the amount and the side are ciphertext inputs."
      },
      "claim(uint256)": {
        "notice": "Computes the caller's encrypted payout for a finalized market and grants the caller decryption rights over it. Payout = stake_on_winning_side * totalPool / winningPool."
      },
      "createMarket(string,uint64)": {
        "notice": "Opens a new binary market. Caller becomes the resolver."
      },
      "finalizePools(uint256,bytes,bytes)": {
        "notice": "Submits the publicly decrypted pool totals plus the KMS decryption proof. The proof is verified against the pool handles (order: [yesPool, noPool]); on success the plaintext total/winning pools are stored, enabling claims."
      },
      "getMarket(uint256)": {
        "notice": "Returns the plaintext market metadata."
      },
      "getPayout(uint256)": {
        "notice": "Returns the caller's encrypted payout handle for a claimed market."
      },
      "getPools(uint256)": {
        "notice": "Returns the encrypted pool handles (decryptable only after resolution)."
      },
      "getStakes(uint256)": {
        "notice": "Returns the caller's encrypted stake handles for a market."
      },
      "hasClaimed(uint256,address)": {
        "notice": "Whether `bettor` has already claimed market `id`."
      },
      "marketCount()": {
        "notice": "Number of markets created; valid market ids are [0, marketCount)."
      },
      "resolve(uint256,bool)": {
        "notice": "Resolver declares the plaintext winning side and exposes the pools for public decryption. The pool ciphertexts are flagged decryptable here; the cleartexts are submitted back through finalizePools()."
      }
    },
    "notice": "Binary (YES/NO) markets where each user's stake amount and chosen side stay encrypted on-chain until the market resolves. Only the aggregate pools are revealed (at resolution) so payouts can be computed with a plaintext divisor; individual bets remain private. This is an \"encrypted accounting\" build: no funding token moves, the pools and positions are encrypted ledgers and payouts are decryptable figures.",
    "version": 1
  },
  "storageLayout": {
    "storage": [
      {
        "astId": 44086,
        "contract": "contracts/PredictionMarket.sol:PredictionMarket",
        "label": "marketCount",
        "offset": 0,
        "slot": "0",
        "type": "t_uint256"
      },
      {
        "astId": 44091,
        "contract": "contracts/PredictionMarket.sol:PredictionMarket",
        "label": "_markets",
        "offset": 0,
        "slot": "1",
        "type": "t_mapping(t_uint256,t_struct(Market)44083_storage)"
      },
      {
        "astId": 44096,
        "contract": "contracts/PredictionMarket.sol:PredictionMarket",
        "label": "_yesPool",
        "offset": 0,
        "slot": "2",
        "type": "t_mapping(t_uint256,t_userDefinedValueType(euint64)44997)"
      },
      {
        "astId": 44101,
        "contract": "contracts/PredictionMarket.sol:PredictionMarket",
        "label": "_noPool",
        "offset": 0,
        "slot": "3",
        "type": "t_mapping(t_uint256,t_userDefinedValueType(euint64)44997)"
      },
      {
        "astId": 44108,
        "contract": "contracts/PredictionMarket.sol:PredictionMarket",
        "label": "_yesStake",
        "offset": 0,
        "slot": "4",
        "type": "t_mapping(t_uint256,t_mapping(t_address,t_userDefinedValueType(euint64)44997))"
      },
      {
        "astId": 44115,
        "contract": "contracts/PredictionMarket.sol:PredictionMarket",
        "label": "_noStake",
        "offset": 0,
        "slot": "5",
        "type": "t_mapping(t_uint256,t_mapping(t_address,t_userDefinedValueType(euint64)44997))"
      },
      {
        "astId": 44121,
        "contract": "contracts/PredictionMarket.sol:PredictionMarket",
        "label": "_claimed",
        "offset": 0,
        "slot": "6",
        "type": "t_mapping(t_uint256,t_mapping(t_address,t_bool))"
      },
      {
        "astId": 44128,
        "contract": "contracts/PredictionMarket.sol:PredictionMarket",
        "label": "_payout",
        "offset": 0,
        "slot": "7",
        "type": "t_mapping(t_uint256,t_mapping(t_address,t_userDefinedValueType(euint64)44997))"
      }
    ],
    "types": {
      "t_address": {
        "encoding": "inplace",
        "label": "address",
        "numberOfBytes": "20"
      },
      "t_bool": {
        "encoding": "inplace",
        "label": "bool",
        "numberOfBytes": "1"
      },
      "t_mapping(t_address,t_bool)": {
        "encoding": "mapping",
        "key": "t_address",
        "label": "mapping(address => bool)",
        "numberOfBytes": "32",
        "value": "t_bool"
      },
      "t_mapping(t_address,t_userDefinedValueType(euint64)44997)": {
        "encoding": "mapping",
        "key": "t_address",
        "label": "mapping(address => euint64)",
        "numberOfBytes": "32",
        "value": "t_userDefinedValueType(euint64)44997"
      },
      "t_mapping(t_uint256,t_mapping(t_address,t_bool))": {
        "encoding": "mapping",
        "key": "t_uint256",
        "label": "mapping(uint256 => mapping(address => bool))",
        "numberOfBytes": "32",
        "value": "t_mapping(t_address,t_bool)"
      },
      "t_mapping(t_uint256,t_mapping(t_address,t_userDefinedValueType(euint64)44997))": {
        "encoding": "mapping",
        "key": "t_uint256",
        "label": "mapping(uint256 => mapping(address => euint64))",
        "numberOfBytes": "32",
        "value": "t_mapping(t_address,t_userDefinedValueType(euint64)44997)"
      },
      "t_mapping(t_uint256,t_struct(Market)44083_storage)": {
        "encoding": "mapping",
        "key": "t_uint256",
        "label": "mapping(uint256 => struct PredictionMarket.Market)",
        "numberOfBytes": "32",
        "value": "t_struct(Market)44083_storage"
      },
      "t_mapping(t_uint256,t_userDefinedValueType(euint64)44997)": {
        "encoding": "mapping",
        "key": "t_uint256",
        "label": "mapping(uint256 => euint64)",
        "numberOfBytes": "32",
        "value": "t_userDefinedValueType(euint64)44997"
      },
      "t_string_storage": {
        "encoding": "bytes",
        "label": "string",
        "numberOfBytes": "32"
      },
      "t_struct(Market)44083_storage": {
        "encoding": "inplace",
        "label": "struct PredictionMarket.Market",
        "members": [
          {
            "astId": 44066,
            "contract": "contracts/PredictionMarket.sol:PredictionMarket",
            "label": "question",
            "offset": 0,
            "slot": "0",
            "type": "t_string_storage"
          },
          {
            "astId": 44068,
            "contract": "contracts/PredictionMarket.sol:PredictionMarket",
            "label": "resolveDeadline",
            "offset": 0,
            "slot": "1",
            "type": "t_uint64"
          },
          {
            "astId": 44070,
            "contract": "contracts/PredictionMarket.sol:PredictionMarket",
            "label": "resolver",
            "offset": 8,
            "slot": "1",
            "type": "t_address"
          },
          {
            "astId": 44072,
            "contract": "contracts/PredictionMarket.sol:PredictionMarket",
            "label": "resolved",
            "offset": 28,
            "slot": "1",
            "type": "t_bool"
          },
          {
            "astId": 44074,
            "contract": "contracts/PredictionMarket.sol:PredictionMarket",
            "label": "winningSide",
            "offset": 29,
            "slot": "1",
            "type": "t_bool"
          },
          {
            "astId": 44076,
            "contract": "contracts/PredictionMarket.sol:PredictionMarket",
            "label": "finalized",
            "offset": 30,
            "slot": "1",
            "type": "t_bool"
          },
          {
            "astId": 44078,
            "contract": "contracts/PredictionMarket.sol:PredictionMarket",
            "label": "hasBets",
            "offset": 31,
            "slot": "1",
            "type": "t_bool"
          },
          {
            "astId": 44080,
            "contract": "contracts/PredictionMarket.sol:PredictionMarket",
            "label": "totalPool",
            "offset": 0,
            "slot": "2",
            "type": "t_uint64"
          },
          {
            "astId": 44082,
            "contract": "contracts/PredictionMarket.sol:PredictionMarket",
            "label": "winningPool",
            "offset": 8,
            "slot": "2",
            "type": "t_uint64"
          }
        ],
        "numberOfBytes": "96"
      },
      "t_uint256": {
        "encoding": "inplace",
        "label": "uint256",
        "numberOfBytes": "32"
      },
      "t_uint64": {
        "encoding": "inplace",
        "label": "uint64",
        "numberOfBytes": "8"
      },
      "t_userDefinedValueType(euint64)44997": {
        "encoding": "inplace",
        "label": "euint64",
        "numberOfBytes": "32"
      }
    }
  }
}